:100000000C942A000C94261B0C9447000C94470077
:100010000C9447000C9447000C9447000C94B91BB7
:100020000C9447000C9447000C9447000C94521B0E
:100030000C9447000C9447000C9447000C94470024
:100040000C9447000C9447000C9447000C94470014
:100050000C94470011241FBECFE5D8E0DEBFCDBF12
:1000600011E0A0E6B0E0EEEFF8E302C005900D92DB
:10007000A837B107D9F711E0A8E7B1E001C01D9298
:10008000A83EB107E1F70E94301A0C947D1C0C9435
:100090000000EF92FF920F931F937B018C0120E0F1
:1000A00030E040E05FE40E94F50388238CF0C80153
:1000B000B70120E030E040E05FE40E94C1010E940F
:1000C00055049B01AC01205030404040504806C0D0
:1000D000C801B7010E9455049B01AC01B901CA01D6
:1000E0001F910F91FF90EF900895A0E0B0E0EBE733
:1000F000F0E00C94461CDC012B01FA019C9192303B
:1001000008F439C1EB018881823008F433C194309E
:1001100069F4843009F02FC111969C91119789815F
:10012000981709F428C1A0E6B0E025C1843009F48D
:1001300021C18230A9F4923009F01DC19A01AD01AC
:1001400088E0EA010990AE01E90109929E0181501F
:10015000C1F7E201898111969C918923818308C1AD
:10016000923009F407C112962D903C901397EB0141
:100170008A819B811496AD90BD90CD90DC901797AD
:10018000EC80FD800E811F819101281B390BB90184
:1001900037FF04C066277727621B730B6032710537
:1001A0000CF061C0121613066CF537014801062EDB
:1001B00004C096948794779467940A94D2F721E0C8
:1001C00030E040E050E004C0220F331F441F551FB1
:1001D0006A95D2F721503040404050402E213F21B7
:1001E00040235123211531054105510521F021E01E
:1001F00030E040E050E079018A01E628F72808293C
:1002000019293CC0232BD1F1260E371E350146019A
:10021000062E04C096948794779467940A94D2F734
:1002200021E030E040E050E004C0220F331F441FC3
:10023000551F6A95D2F721503040404050402A2146
:100240003B214C215D21211531054105510521F04E
:1002500021E030E040E050E059016A01A628B728CB
:10026000C828D9280BC0821593052CF01C01AA249C
:10027000BB24650103C0EE24FF24870111969C91E5
:10028000D20111968C91981709F445C0992339F041
:10029000A80197012A193B094C095D0906C0A6016E
:1002A00095012E193F09400B510B57FD08C01182D3
:1002B0003382228224833583468357831DC081E0A5
:1002C00081833382228288279927DC01821B930B4A
:1002D000A40BB50B84839583A683B7830DC0220F2F
:1002E000331F441F551F24833583468357838281E0
:1002F000938101979383828324813581468157813D
:10030000DA01C9010197A109B1098F5F9F4FAF4F72
:10031000BF4328F30BC0918333822282EA0CFB1C7B
:100320000C1D1D1DE482F5820683178383E0808304
:10033000248135814681578157FF1AC0C901AA27F8
:1003400097FDA095BA2F81709070A070B0705695EF
:10035000479537952795822B932BA42BB52B848318
:100360009583A683B7838281938101969383828349
:10037000DF0101C0D201CD01CDB7DEB7E2E10C94BF
:10038000621CA0E2B0E0E7ECF1E00C94521C69833F
:100390007A838B839C832D833E834F835887E9E048
:1003A000EE2EF12CEC0EFD1ECE010196B7010E943F
:1003B00046068E010F5E1F4FCE010596B8010E94C2
:1003C00046068A8991E089278A8BC701B801AE0168
:1003D000475E5F4F0E9475000E947105A096E6E09F
:1003E0000C946E1CA0E2B0E0E8EFF1E00C94521C1B
:1003F00069837A838B839C832D833E834F835887C5
:10040000F9E0EF2EF12CEC0EFD1ECE010196B701A6
:100410000E9446068E010F5E1F4FCE010596B80161
:100420000E944606C701B801AE01475E5F4F0E94B9
:1004300075000E947105A096E6E00C946E1CA0E287
:10044000B0E0E5E2F2E00C94461C69837A838B838A
:100450009C832D833E834F835887CE010196BE0136
:10046000675F7F4F0E944606CE010596BE016F5E14
:100470007F4F0E9446069985923088F089898230A4
:10048000C8F0943019F4823051F404C0843029F457
:10049000923081F480E690E0C6C0923049F420E0CA
:1004A0009A858A89981321E02A87CE010996BBC0D4
:1004B000823049F420E09A858A89981321E02A8BBA
:1004C000CE014196B0C02D843E844F8458886D88FB
:1004D0007E888F88988CEE24FF248701AA24BB2471
:1004E000650140E050E060E070E0E0E0F0E0C10174
:1004F00081709070892BE9F0E60CF71C081D191D1E
:100500009A01AB012A0D3B1D4C1D5D1D80E090E062
:10051000A0E0B0E0E614F7040805190520F481E036
:1005200090E0A0E0B0E0BA01A901480F591F6A1F8E
:100530007B1FAA0CBB1CCC1CDD1C97FE08C081E0F5
:1005400090E0A0E0B0E0A82AB92ACA2ADB2A3196B6
:10055000E032F10549F0660C771C881C991C569412
:10056000479437942794C3CFFA85EA892B893C892D
:100570008B859C85280F391F2E5F3F4F17C0CA01FE
:1005800081709070892B61F016950795F794E79428
:1005900080E090E0A0E0B0E8E82AF92A0A2B1B2BC3
:1005A00076956795579547952F5F3F4F77FDE7CF36
:1005B0000CC0440F551F661F771F17FD4160EE0CDE
:1005C000FF1C001F111F21503040403090E05907A0
:1005D00090E0690790E4790760F32B8F3C8FDB0193
:1005E000CA018F779070A070B07080349105A1051A
:1005F000B10561F447FD0AC0E114F10401051105DC
:1006000029F0405C5F4F6F4F7F4F40781A8EFE1786
:1006100011F081E08A8F4D8F5E8F6F8F78A383E01A
:10062000898FCE0149960E947105A096E2E10C9453
:10063000621CA8E1B0E0EFE1F3E00C944E1C69838A
:100640007A838B839C832D833E834F835887B9E0C5
:10065000EB2EF12CEC0EFD1ECE010196B7010E948F
:1006600046068E010F5E1F4FCE010596B8010E940F
:1006700046062985223008F47EC03989323010F4CC
:10068000B8017CC08A859A8989278A87243011F02D
:10069000223031F4231709F06EC060E670E06EC0BE
:1006A000343039F41D861E861F86188A1C861B86E8
:1006B00004C0323021F484E08987B7015FC02B8504
:1006C0003C858B899C89281B390B3C872B87ED84C3
:1006D000FE840F851889AD88BE88CF88D88CEA142F
:1006E000FB040C051D0540F4EE0CFF1C001F111F40
:1006F000215030403C872B8720E030E040E050E044
:1007000080E090E0A0E0B0E460E070E0EA14FB0478
:100710000C051D0540F0282B392B4A2B5B2BEA18C2
:10072000FB080C091D09B695A79597958795EE0CC2
:10073000FF1C001F111F6F5F7F4F6F31710531F775
:10074000DA01C9018F779070A070B0708034910584
:10075000A105B10561F427FD0AC0E114F10401050A
:10076000110529F0205C3F4F4F4F5F4F20782D87B8
:100770003E874F87588BBE01675F7F4FCB010E943A
:1007800071056896EAE00C946A1CA8E1B0E0EBEC15
:10079000F3E00C94521C69837A838B839C832D83B2
:1007A0003E834F83588789E0E82EF12CEC0EFD1E26
:1007B000CE010196B7010E9446068E010F5E1F4FC3
:1007C000CE010596B8010E9446068985823040F028
:1007D0008989823028F0C701B8010E94BE0601C095
:1007E0008FEF6896E6E00C946E1CA8E1B0E0EBEFAA
:1007F000F3E00C94521C69837A838B839C832D8352
:100800003E834F83588789E0E82EF12CEC0EFD1EC5
:10081000CE010196B7010E9446068E010F5E1F4F62
:10082000CE010596B8010E9446068985823040F0C7
:100830008989823028F0C701B8010E94BE0601C034
:100840008FEF6896E6E00C946E1CA8E1B0E0EBE256
:10085000F4E00C94521C69837A838B839C832D83F0
:100860003E834F83588789E0E82EF12CEC0EFD1E65
:10087000CE010196B7010E9446068E010F5E1F4F02
:10088000CE010596B8010E9446068985823040F067
:100890008989823028F0C701B8010E94BE0601C0D4
:1008A00081E06896E6E00C946E1CACE0B0E0EBE50D
:1008B000F4E00C94561C69837A838B839C83CE016D
:1008C0000196BE016B5F7F4F0E9446068D8182308C
:1008D00061F1823050F1843021F48E81882351F10E
:1008E0002EC02F81388537FD20C06E812F31310514
:1008F0001CF06623F9F023C08EE190E0821B930B7D
:1009000029853A854B855C8504C056954795379572
:1009100027958A95D2F76623B1F05095409530958A
:1009200021953F4F4F4F5F4F0EC020E030E040E039
:1009300050E009C02FEF3FEF4FEF5FE704C020E02A
:1009400030E040E050E8B901CA012C96E2E00C9496
:10095000721CA8E0B0E0EFEAF4E00C944E1C7B01BE
:100960008C01611571058105910519F482E0898377
:1009700060C083E089838EE1C82ED12CDC82CB82DB
:10098000ED82FE820F831887C801B7010E942205FD
:10099000FC013197F7FF3BC0222733272E1B3F0B6B
:1009A00057016801022E04C0D694C794B794A79447
:1009B0000A94D2F740E050E060E070E081E090E01F
:1009C000A0E0B0E004C0880F991FAA1FBB1F2A95A2
:1009D000D2F70197A109B1098E219F21A023B1234C
:1009E0000097A105B10521F041E050E060E070E022
:1009F0004A295B296C297D294D835E836F83788723
:100A00008EE190E08E1B9F0B9C838B8312C03097EE
:100A100081F00E2E04C0EE0CFF1C001F111F0A9463
:100A2000D2F7ED82FE820F831887CE1ADF0ADC82AE
:100A3000CB821A82CE0101960E9471052896EAE0C7
:100A40000C946A1CEF92FF920F931F937B018C0111
:100A500080E0E81680E0F80681E0080780E01807EB
:100A600088F48FEFE816F1040105110531F028F044
:100A700088E090E0A0E0B0E017C080E090E0A0E067
:100A8000B0E012C080E0E81680E0F80680E00807D9
:100A900081E0180728F088E190E0A0E0B0E004C011
:100AA00080E190E0A0E0B0E020E230E040E050E003
:100AB000281B390B4A0B5B0B04C016950795F7945E
:100AC000E7948A95D2F7F701E859FF4F8081281BF8
:100AD000310941095109C9011F910F91FF90EF9010
:100AE0000895DF92EF92FF920F931F93FC01E48031
:100AF000F58006811781D1808081823048F480E0C2
:100B000090E0A0E1B0E0E82AF92A0A2B1B2BA5C04F
:100B1000843009F49FC0823021F4EE24FF24870141
:100B200005C0E114F1040105110519F4E0E0F0E05D
:100B300096C0628173819FEF623879070CF05BC0C9
:100B400022E83FEF261B370B2A3131052CF020E03D
:100B500030E040E050E02AC0B801A701022E04C0F6
:100B600076956795579547950A94D2F781E090E07E
:100B7000A0E0B0E004C0880F991FAA1FBB1F2A95F0
:100B8000D2F70197A109B1098E219F21A023B1239A
:100B90000097A105B10521F081E090E0A0E0B0E070
:100BA0009A01AB01282B392B4A2B5B2BDA01C901A7
:100BB0008F779070A070B07080349105A105B10559
:100BC00039F427FF09C0205C3F4F4F4F5F4F04C0EF
:100BD000215C3F4F4F4F5F4FE0E0F0E02030A0E05E
:100BE0003A07A0E04A07A0E45A0710F0E1E0F0E07D
:100BF00079018A0127C06038710564F5FB01E1586D
:100C0000FF4FD801C7018F779070A070B07080340B
:100C10009105A105B10539F4E7FE0DC080E490E02F
:100C2000A0E0B0E004C08FE390E0A0E0B0E0E80E08
:100C3000F91E0A1F1B1F17FF05C016950795F7948D
:100C4000E794319687E016950795F794E7948A958F
:100C5000D1F705C0EE24FF248701EFEFF0E06E2FFF
:100C6000679566276795902F9F77D794DD24D79453
:100C70008E2F8695492F462B582F5D29B701CA0123
:100C80001F910F91FF90EF90DF900895FC01DB0121
:100C9000408151812281622F6F7770E0221F2227CD
:100CA000221F9381892F880F822B282F30E0991FD4
:100CB0009927991F11969C93119721153105A9F534
:100CC000411551056105710511F482E037C082E8D4
:100CD0009FEF13969C938E9312979A01AB0167E056
:100CE000220F331F441F551F6A95D1F783E08C9361
:100CF0000DC0220F331F441F551F12968D919C91DA
:100D00001397019713969C938E931297203080E04F
:100D1000380780E0480780E4580758F314962D936D
:100D20003D934D935C93179708952F3F310579F4C8
:100D3000411551056105710519F484E08C930895FE
:100D400064FF03C081E08C9312C01C9210C02F5727
:100D5000304013963C932E93129783E08C9387E058
:100D6000440F551F661F771F8A95D1F7706414963C
:100D70004D935D936D937C93179708951F93DC01BA
:100D8000FB019C91923008F447C08081823008F4C6
:100D900043C0943051F411961C91843099F58181AF
:100DA000682F70E0611B71093FC0843021F09230E0
:100DB00031F48230B9F18181882389F12DC01196F7
:100DC0001C9111978230F1F081811817D9F4129695
:100DD0002D913C911397828193818217930794F010
:100DE00028173907BCF014968D919D910D90BC91F8
:100DF000A02D2481358146815781281739074A075C
:100E00005B0718F4112341F00AC082179307A40767
:100E1000B50740F4112319F061E070E005C06FEFF1
:100E20007FEF02C060E070E0CB011F910895DF9377
:100E3000CF93CDB7DEB7A3E5B0E0E3E5F0E0808186
:100E4000877F8C93A3E5B0E0E3E5F0E080818F7BC2
:100E50008C93AFE5B0E0EFE5F0E0808180688C93A3
:100E6000A9E5B0E0E9E5F0E0808181608C93CF9165
:100E7000DF910895DF93CF93CDB7DEB7A3E5B0E060
:100E8000E3E5F0E0808181608C93A3E5B0E0E3E5E9
:100E9000F0E080818D7F8C93A3E5B0E0E3E5F0E0A6
:100EA000808184608C93CF91DF910895DF93CF93FD
:100EB000CDB7DEB7A3E5B0E0E3E5F0E080818E7F5B
:100EC0008C93A3E5B0E0E3E5F0E080818D7F8C9327
:100ED000A3E5B0E0E3E5F0E080818B7F8C93CF91D8
:100EE000DF910895DF93CF93CDB7DEB72C970FB680
:100EF000F894DEBF0FBECDBF69877A878B879C874A
:100F000080E890E0A0E0B0E08D839E83AF83B88757
:100F100089859A85AB85BC8528EE33E040E050E0BA
:100F2000BC01CD010E94E51BDC01CB012D813E817E
:100F30004F815885BC01CD010E94241CDA01C901F2
:100F400089839A83AB83BC8389819A81AB81BC817D
:100F5000892F9A2FAB2FBB2780937801909379012B
:100F6000A0937A01B0937B0189819A81AB81BC8186
:100F70009C01AD0130704070507080E091E0A0E0C5
:100F8000B0E0821B930BA40BB50B80937C01909374
:100F90007D01A0937E01B0937F01E2E5F0E08091B6
:100FA0007C0190917D01A0917E01B0917F018083B1
:100FB0008091780190917901A0917A01B0917B01A3
:100FC0000196A11DB11D8093780190937901A093A2
:100FD0007A01B0937B012C960FB6F894DEBF0FBE5A
:100FE000CDBFCF91DF910895DF93CF93CDB7DEB71B
:100FF000AEE4B0E0EEE4F0E0808188608C93AFE591
:10100000B0E0EFE5F0E0808180688C93A9E5B0E086
:10101000E9E5F0E0808180618C93CF91DF910895C4
:10102000DF93CF93CDB7DEB7AEE4B0E0EEE4F0E00F
:10103000808181608C93AEE4B0E0EEE4F0E08081EA
:101040008D7F8C93AEE4B0E0EEE4F0E080818460CC
:101050008C93CF91DF910895DF93CF93CDB7DEB717
:10106000AEE4B0E0EEE4F0E080818E7F8C93AEE4FD
:10107000B0E0EEE4F0E080818D7F8C93AEE4B0E0F0
:10108000EEE4F0E080818B7F8C93CF91DF91089527
:10109000DF93CF93CDB7DEB72C970FB6F894DEBFB2
:1010A0000FBECDBF69877A878B879C8789859A8594
:1010B000AB85BC85813D20E2920720E0A20720E0BD
:1010C000B20758F580E890E0A0E0B0E08D839E8301
:1010D000AF83B88789859A85AB85BC8528EE33E0D8
:1010E00040E050E0BC01CD010E94E51BDC01CB01DA
:1010F0002D813E814F815885BC01CD010E94241C69
:10110000DA01C90189839A83AB83BC83EAE4F0E006
:1011100089819A810197918380832C960FB6F894E8
:10112000DEBF0FBECDBFCF91DF910895DF93CF9388
:10113000CDB7DEB781E066E040E00E94140A81E0AE
:1011400065E041E00E94140A81E067E041E00E940E
:10115000140A81E064E041E00E94140A81E064E046
:1011600041E00E941C0BADE2B0E0EDE2F0E08081D6
:1011700080618C93ADE2B0E0EDE2F0E080818160CF
:101180008C93ADE2B0E0EDE2F0E0808182608C9380
:10119000ADE2B0E0EDE2F0E0808180648C93CF912D
:1011A000DF910895DF93CF93CDB7DEB781E066E09E
:1011B00041E00E94140A81E065E040E00E94140AC8
:1011C00081E067E040E00E94140A81E064E040E0D2
:1011D0000E94140AADE2B0E0EDE2F0E080818F7E83
:1011E0008C93ADE2B0E0EDE2F0E0808180648C931E
:1011F000CF91DF910895DF93CF93CDB7DEB781E034
:1012000064E040E00E941C0BCF91DF910895DF93D2
:10121000CF93CDB7DEB781E064E040E00E941C0BC5
:10122000CF91DF910895DF93CF930F92CDB7DEB7C3
:101230008983EFE2F0E089818083EEE2F0E0808153
:101240008823DCF7EFE2F0E080810F90CF91DF910F
:101250000895DF93CF93CDB7DEB7AFE5B0E0EFE50C
:10126000F0E0808180688C93A5E5B0E0E5E5F0E0F2
:1012700080818E7F8C93A5E5B0E0E5E5F0E080818C
:1012800082608C93ABE5B0E0EBE5F0E080818064B8
:101290008C93CF91DF910895DF93CF93CDB7DEB7D5
:1012A000AFE5B0E0EFE5F0E0808180688C93A5E5E4
:1012B000B0E0E5E5F0E080818B7F8C93A5E5B0E0C0
:1012C000E5E5F0E0808188608C93ABE5B0E0EBE58C
:1012D000F0E0808180688C93CF91DF910895DF9357
:1012E000CF93CDB7DEB7AFE5B0E0EFE5F0E08081BA
:1012F00080688C93A4E5B0E0E4E5F0E080818F7B2A
:101300008C93A4E5B0E0E4E5F0E0808180688C9304
:10131000ABE5B0E0EBE5F0E0808180628C93CF91AB
:10132000DF910895DF93CF9300D000D0CDB7DEB723
:1013300089836A838981282F30E03C832B838B81CA
:101340009C8181309105D1F02B813C812230310587
:101350002CF48B819C81009761F01EC02B813C8115
:101360002230310581F08B819C818330910581F0A1
:1013700013C0EAE3F0E08A8180830EC0E7E3F0E087
:101380008A81808309C0E4E3F0E08A81808304C01D
:10139000E1E3F0E08A8180830F900F900F900F902F
:1013A000CF91DF910895DF93CF9300D000D0CDB7D8
:1013B000DEB789836A838981282F30E03C832B83C1
:1013C0008B819C8181309105D1F02B813C81223031
:1013D00031052CF48B819C81009761F01EC02B811C
:1013E0003C812230310581F08B819C8183309105D5
:1013F00081F013C0EBE3F0E08A8180830EC0E8E364
:10140000F0E08A81808309C0E5E3F0E08A8180838F
:1014100004C0E2E3F0E08A8180830F900F900F9088
:101420000F90CF91DF910895DF93CF93CDB7DEB7C3
:1014300029970FB6F894DEBF0FBECDBF89836A83AC
:101440004B838B81282F30E03987288788859985C1
:10145000009739F0288539852130310509F475C0A8
:10146000E2C08981282F30E03F832E838E819F81C7
:101470008130910559F12E813F81223031052CF4C4
:101480008E819F81009769F0CEC02E813F812230EE
:10149000310589F18E819F818330910509F440C027
:1014A000C2C0AAE3B0E0EAE3F0E08081482F8A817D
:1014B000282F30E081E090E0022E02C0880F991FB3
:1014C0000A94E2F7809584238C93ADC0A7E3B0E043
:1014D000E7E3F0E08081482F8A81282F30E081E027
:1014E00090E0022E02C0880F991F0A94E2F78095BF
:1014F00084238C9398C0A4E3B0E0E4E3F0E080811F
:10150000482F8A81282F30E081E090E0022E02C02F
:10151000880F991F0A94E2F7809584238C9383C0E7
:10152000A1E3B0E0E1E3F0E08081482F8A81282F39
:1015300030E081E090E0022E02C0880F991F0A94EB
:10154000E2F7809584238C936EC08981282F30E048
:101550003D832C838C819D818130910549F12C81C3
:101560003D81223031052CF48C819D81009761F002
:101570005AC02C813D812230310571F18C819D81D1
:1015800083309105E9F14FC0AAE3B0E0EAE3F0E06F
:101590008081482F8A81282F30E081E090E0022E60
:1015A00002C0880F991F0A94E2F7842B8C933BC0EA
:1015B000A7E3B0E0E7E3F0E08081482F8A81282F9D
:1015C00030E081E090E0022E02C0880F991F0A945B
:1015D000E2F7842B8C9327C0A4E3B0E0E4E3F0E0CF
:1015E0008081482F8A81282F30E081E090E0022E10
:1015F00002C0880F991F0A94E2F7842B8C9313C0C2
:10160000A1E3B0E0E1E3F0E08081482F8A81282F58
:1016100030E081E090E0022E02C0880F991F0A940A
:10162000E2F7842B8C9329960FB6F894DEBF0FBE99
:10163000CDBFCF91DF910895DF93CF93CDB7DEB7C4
:1016400029970FB6F894DEBF0FBECDBF89836A839A
:101650004B838B81282F30E03987288788859985AF
:10166000009739F0288539852130310509F475C096
:10167000E2C08981282F30E03F832E838E819F81B5
:101680008130910559F12E813F81223031052CF4B2
:101690008E819F81009769F0CEC02E813F812230DC
:1016A000310589F18E819F818330910509F440C015
:1016B000C2C0ABE3B0E0EBE3F0E08081482F8A8169
:1016C000282F30E081E090E0022E02C0880F991FA1
:1016D0000A94E2F7809584238C93ADC0A8E3B0E030
:1016E000E8E3F0E08081482F8A81282F30E081E014
:1016F00090E0022E02C0880F991F0A94E2F78095AD
:1017000084238C9398C0A5E3B0E0E5E3F0E080810A
:10171000482F8A81282F30E081E090E0022E02C01D
:10172000880F991F0A94E2F7809584238C9383C0D5
:10173000A2E3B0E0E2E3F0E08081482F8A81282F25
:1017400030E081E090E0022E02C0880F991F0A94D9
:10175000E2F7809584238C936EC08981282F30E036
:101760003D832C838C819D818130910549F12C81B1
:101770003D81223031052CF48C819D81009761F0F0
:101780005AC02C813D812230310571F18C819D81BF
:1017900083309105E9F14FC0ABE3B0E0EBE3F0E05B
:1017A0008081482F8A81282F30E081E090E0022E4E
:1017B00002C0880F991F0A94E2F7842B8C933BC0D8
:1017C000A8E3B0E0E8E3F0E08081482F8A81282F89
:1017D00030E081E090E0022E02C0880F991F0A9449
:1017E000E2F7842B8C9327C0A5E3B0E0E5E3F0E0BB
:1017F0008081482F8A81282F30E081E090E0022EFE
:1018000002C0880F991F0A94E2F7842B8C9313C0AF
:10181000A2E3B0E0E2E3F0E08081482F8A81282F44
:1018200030E081E090E0022E02C0880F991F0A94F8
:10183000E2F7842B8C9329960FB6F894DEBF0FBE87
:10184000CDBFCF91DF910895DF93CF9300D000D02B
:10185000CDB7DEB789836A838981282F30E03C8346
:101860002B838B819C818130910549F12B813C81B7
:10187000223031052CF48B819C81009761F05AC095
:101880002B813C812230310571F18B819C81833029
:101890009105E9F14FC0ABE3B0E0EBE3F0E080810C
:1018A000482F8A81282F30E081E090E0022E02C08C
:1018B000880F991F0A94E2F784278C933BC0A8E312
:1018C000B0E0E8E3F0E08081482F8A81282F30E003
:1018D00081E090E0022E02C0880F991F0A94E2F77F
:1018E00084278C9327C0A5E3B0E0E5E3F0E0808196
:1018F000482F8A81282F30E081E090E0022E02C03C
:10190000880F991F0A94E2F784278C9313C0A2E3EF
:10191000B0E0E2E3F0E08081482F8A81282F30E0B8
:1019200081E090E0022E02C0880F991F0A94E2F72E
:1019300084278C930F900F900F900F90CF91DF9191
:101940000895DF93CF9300D000D000D0CDB7DEB79D
:1019500089836A838981282F30E03D832C834C81E1
:101960005D814130510549F18C819D818230910525
:1019700034F42C813D812115310561F057C04C8133
:101980005D814230510561F18C819D8183309105EB
:10199000D1F14CC0E9E3F0E08081282F30E08A816A
:1019A000882F90E0A90102C0559547958A95E2F7E6
:1019B000CA01582F51705B833AC0E6E3F0E08081A2
:1019C000282F30E08A81882F90E0A90102C0559528
:1019D00047958A95E2F7CA01582F51705B8327C05B
:1019E000E3E3F0E08081282F30E08A81882F90E0C7
:1019F000A90102C0559547958A95E2F7CA01582F6B
:101A000051705B8314C0E0E3F0E08081282F30E068
:101A10008A81882F90E0A90102C0559547958A9543
:101A2000E2F7CA01582F51705B8301C002C08B815D
:101A30008E838E8126960FB6F894DEBF0FBECDBF83
:101A4000CF91DF910895DF93CF9300D000D00F9214
:101A5000CDB7DEB789838981282F30E03C832B8383
:101A60008B819C8181309105D1F02B813C8122308A
:101A700031052CF48B819C81009761F01FC02B8174
:101A80003C812230310581F08B819C81833091052E
:101A900081F014C0E9E3F0E090819A8310C0E6E39E
:101AA000F0E020812A830BC0E3E3F0E030813A8349
:101AB00006C0E0E3F0E080818A8301C002C09A8121
:101AC0009D838D810F900F900F900F900F90CF916D
:101AD000DF910895DF93CF9300D000D0CDB7DEB76C
:101AE00089836A838981282F30E03C832B838B8113
:101AF0009C818130910549F12B813C812230310557
:101B00002CF48B819C81009761F05AC02B813C8121
:101B10002230310571F18B819C8183309105E9F18F
:101B20004FC0ABE3B0E0EBE3F0E08081482F8A8167
:101B3000282F30E081E090E0022E02C0880F991F2C
:101B40000A94E2F7842B8C933BC0A8E3B0E0E8E36F
:101B5000F0E08081482F8A81282F30E081E090E0FA
:101B6000022E02C0880F991F0A94E2F7842B8C93EF
:101B700027C0A5E3B0E0E5E3F0E08081482F8A814B
:101B8000282F30E081E090E0022E02C0880F991FDC
:101B90000A94E2F7842B8C9313C0A2E3B0E0E2E353
:101BA000F0E08081482F8A81282F30E081E090E0AA
:101BB000022E02C0880F991F0A94E2F7842B8C939F
:101BC0000F900F900F900F90CF91DF910895DF93BA
:101BD000CF93CDB7DEB7EAE3F0E01082A7E2B0E042
:101BE000E7E2F0E0808181608C93A7E2B0E0E7E279
:101BF000F0E0808180648C93A7E2B0E0E7E2F0E05F
:101C000080818F778C93A6E2B0E0E6E2F0E08081FD
:101C10008E7F8C93A6E2B0E0E6E2F0E08081826005
:101C20008C93A6E2B0E0E6E2F0E0808184608C93E1
:101C3000A7E2B0E0E7E2F0E080818F7D8C93A6E23E
:101C4000B0E0E6E2F0E0808180628C93A6E2B0E052
:101C5000E6E2F0E0808180688C93CF91DF91089577
:101C6000DF93CF9300D0CDB7DEB7A6E2B0E0E6E2D7
:101C7000F0E0808180648C93E6E2F0E080818295E0
:101C80008F70882F90E0817090700097A9F31A826E
:101C90001982E4E2F0E08081882F90E09A838983C2
:101CA000E5E2F0E08081882F90E0982F88279C0162
:101CB00089819A81822B932B9A83898389819A8146
:101CC0000F900F90CF91DF9108950F93DF93CF93F3
:101CD00000D000D00F92CDB7DEB789836A834B83E3
:101CE0002C830D8389816A8141E00E94140A8981D5
:101CF0006B8141E00E94140A89816C8141E00E945D
:101D0000140A89816D8141E00E94140A0F900F909E
:101D10000F900F900F90CF91DF910F910895EF9258
:101D20000F93DF93CF93CDB7DEB7C154D0400FB63A
:101D3000F894DEBF0FBECDBF8CAF6DAF4EAF2FAFEF
:101D4000FE01E05CFF4F0083FE01EF5BFF4FE0828E
:101D5000FE01EF5BFF4F808198E2692F0E94041C17
:101D60008BAF1AAE19AE29C28CAD6DAD41E00E94A9
:101D70001C0B8CAD6EAD40E00E941C0B8CAD6FADAA
:101D800040E00E941C0B8CADFE01E05CFF4F6081C7
:101D900040E00E941C0B80E090E0A8E4B2E48DAB30
:101DA0009EABAFABB8AF6DA97EA98FA998AD20E06F
:101DB00030E04AEF54E40E941F02DC01CB0189AB02
:101DC0009AABABABBCAB69A97AA98BA99CA920E063
:101DD00030E040E85FE30E94250488232CF481E092
:101DE00090E098AB8FA73FC069A97AA98BA99CA95D
:101DF00020E03FEF4FE757E40E94C50318164CF56B
:101E00006DA97EA98FA998AD20E030E040E251E4B1
:101E10000E941F02DC01CB01BC01CD010E944900E0
:101E2000DC01CB0198AB8FA70FC088EC90E09EA798
:101E30008DA78DA59EA50197F1F79EA78DA78FA5CC
:101E400098A9019798AB8FA78FA598A9009769F7D4
:101E500014C069A97AA98BA99CA90E944900DC0138
:101E6000CB0198AB8FA78FA598A99CA78BA78BA513
:101E70009CA50197F1F79CA78BA78CAD6DAD40E0B9
:101E80000E941C0B8CAD6EAD41E00E941C0B8CAD12
:101E90006FAD40E00E941C0B8CADFE01E05CFF4F7B
:101EA000608140E00E941C0B80E090E0A8E4B2E476
:101EB0008FA398A7A9A7BAA76FA178A589A59AA566
:101EC00020E030E04AEF54E40E941F02DC01CB0125
:101ED0008BA39CA3ADA3BEA36BA17CA18DA19EA14E
:101EE00020E030E040E85FE30E94250488232CF4E2
:101EF00081E090E09AA389A33FC06BA17CA18DA152
:101F00009EA120E03FEF4FE757E40E94C50318165B
:101F10004CF56FA178A589A59AA520E030E040E2B4
:101F200051E40E941F02DC01CB01BC01CD010E94E3
:101F30004900DC01CB019AA389A30FC088EC90E093
:101F400098A38F8F8F8D98A10197F1F798A38F8F0A
:101F500089A19AA101979AA389A389A19AA100971F
:101F600069F714C06BA17CA18DA19EA10E944900BC
:101F7000DC01CB019AA389A389A19AA19E8F8D8FA1
:101F80008D8D9E8D0197F1F79E8F8D8F8CAD6DADF0
:101F900040E00E941C0B8CAD6EAD40E00E941C0B1B
:101FA0008CAD6FAD41E00E941C0B8CADFE01E05C7E
:101FB000FF4F608140E00E941C0B80E090E0A8E4AD
:101FC000B2E4898F9A8FAB8FBC8F698D7A8D8B8DA0
:101FD0009C8D20E030E04AEF54E40E941F02DC01B7
:101FE000CB018D8B9E8BAF8BB88F6D897E898F894E
:101FF000988D20E030E040E85FE30E9425048823CC
:102000002CF481E090E09C8B8B8B3FC06D897E89A6
:102010008F89988D20E03FEF4FE757E40E94C5037A
:1020200018164CF5698D7A8D8B8D9C8D20E030E0F3
:1020300040E251E40E941F02DC01CB01BC01CD0152
:102040000E944900DC01CB019C8B8B8B0FC088EC7C
:1020500090E09A8B898B89899A890197F1F79A8BFD
:10206000898B8B899C8901979C8B8B8B8B899C8915
:10207000009769F714C06D897E898F89988D0E94B9
:102080004900DC01CB019C8B8B8B8B899C89988BC5
:102090008F878F8598890197F1F7988B8F878CAD03
:1020A0006DAD40E00E941C0B8CAD6EAD40E00E9417
:1020B0001C0B8CAD6FAD40E00E941C0B8CADFE0183
:1020C000E05CFF4F608141E00E941C0B80E090E0EB
:1020D000A8E4B2E48B879C87AD87BE876B857C853F
:1020E0008D859E8520E030E04AEF54E40E941F0277
:1020F000DC01CB018F839887A987BA876F817885A8
:1021000089859A8520E030E040E85FE30E9425045D
:1021100088232CF481E090E09E838D833FC06F8103
:10212000788589859A8520E03FEF4FE757E40E9444
:10213000C50318164CF56B857C858D859E8520E042
:1021400030E040E251E40E941F02DC01CB01BC01FF
:10215000CD010E944900DC01CB019E838D830FC01D
:1021600088EC90E09C838B838B819C810197F1F7B5
:102170009C838B838D819E8101979E838D838D812E
:102180009E81009769F714C06F81788589859A854B
:102190000E944900DC01CB019E838D838D819E814D
:1021A0009A83898389819A810197F1F79A83898338
:1021B00089AD9AAD01969AAF89AF8BAD282F30E0EB
:1021C00089AD9AAD821793070CF4CECDCF5BDF4F6C
:1021D0000FB6F894DEBF0FBECDBFCF91DF910F9148
:1021E000EF900895EF920F93DF93CF93CDB7DEB7C3
:1021F000C154D0400FB6F894DEBF0FBECDBF8CAF38
:102200006DAF4EAF2FAFFE01E05CFF4F0083FE01CC
:10221000EF5BFF4FE082FE01EF5BFF4F808198E2B2
:10222000692F0E94041C8BAF1AAE19AE29C28CAD67
:102230006DAD40E00E941C0B8CAD6EAD40E00E9485
:102240001C0B8CAD6FAD40E00E941C0B8CADFE01F1
:10225000E05CFF4F608141E00E941C0B80E090E059
:10226000A8E4B2E48DAB9EABAFABB8AF6DA97EA9CD
:102270008FA998AD20E030E04AEF54E40E941F029D
:10228000DC01CB0189AB9AABABABBCAB69A97AA93A
:102290008BA99CA920E030E040E85FE30E94250480
:1022A00088232CF481E090E098AB8FA73FC069A908
:1022B0007AA98BA99CA920E03FEF4FE757E40E9441
:1022C000C50318164CF56DA97EA98FA998AD20E01D
:1022D00030E040E251E40E941F02DC01CB01BC016E
:1022E000CD010E944900DC01CB0198AB8FA70FC044
:1022F00088EC90E09EA78DA78DA59EA50197F1F78C
:102300009EA78DA78FA598A9019798AB8FA78FA59A
:1023100098A9009769F714C069A97AA98BA99CA903
:102320000E944900DC01CB0198AB8FA78FA598A92B
:102330009CA78BA78BA59CA50197F1F79CA78BA7C2
:102340008CAD6DAD40E00E941C0B8CAD6EAD40E0DD
:102350000E941C0B8CAD6FAD41E00E941C0B8CAD3C
:10236000FE01E05CFF4F608140E00E941C0B80E0BA
:1023700090E0A8E4B2E48FA398A7A9A7BAA76FA199
:1023800078A589A59AA520E030E04AEF54E40E94A0
:102390001F02DC01CB018BA39CA3ADA3BEA36BA149
:1023A0007CA18DA19EA120E030E040E85FE30E9487
:1023B000250488232CF481E090E09AA389A33FC0F0
:1023C0006BA17CA18DA19EA120E03FEF4FE757E4D8
:1023D0000E94C50318164CF56FA178A589A59AA58A
:1023E00020E030E040E251E40E941F02DC01CB011A
:1023F000BC01CD010E944900DC01CB019AA389A355
:102400000FC088EC90E098A38F8F8F8D98A10197D3
:10241000F1F798A38F8F89A19AA101979AA389A315
:1024200089A19AA1009769F714C06BA17CA18DA125
:102430009EA10E944900DC01CB019AA389A389A136
:102440009AA19E8F8D8F8D8D9E8D0197F1F79E8F16
:102450008D8F8CAD6DAD40E00E941C0B8CAD6EADD0
:1024600041E00E941C0B8CAD6FAD40E00E941C0B44
:102470008CADFE01E05CFF4F608140E00E941C0BD0
:1024800080E090E0A8E4B2E4898F9A8FAB8FBC8F94
:10249000698D7A8D8B8D9C8D20E030E04AEF54E47D
:1024A0000E941F02DC01CB018D8B9E8BAF8BB88FFE
:1024B0006D897E898F89988D20E030E040E85FE368
:1024C0000E94250488232CF481E090E09C8B8B8B68
:1024D0003FC06D897E898F89988D20E03FEF4FE75F
:1024E00057E40E94C50318164CF5698D7A8D8B8DC3
:1024F0009C8D20E030E040E251E40E941F02DC01AC
:10250000CB01BC01CD010E944900DC01CB019C8BB9
:102510008B8B0FC088EC90E09A8B898B89899A8984
:102520000197F1F79A8B898B8B899C8901979C8BFA
:102530008B8B8B899C89009769F714C06D897E8984
:102540008F89988D0E944900DC01CB019C8B8B8B7D
:102550008B899C89988B8F878F8598890197F1F754
:10256000988B8F878CAD6DAD41E00E941C0B8CADBC
:102570006EAD40E00E941C0B8CAD6FAD40E00E9440
:102580001C0B8CADFE01E05CFF4F608140E00E94BF
:102590001C0B80E090E0A8E4B2E48B879C87AD87B9
:1025A000BE876B857C858D859E8520E030E04AEF77
:1025B00054E40E941F02DC01CB018F839887A98716
:1025C000BA876F81788589859A8520E030E040E878
:1025D0005FE30E94250488232CF481E090E09E8331
:1025E0008D833FC06F81788589859A8520E03FEF94
:1025F0004FE757E40E94C50318164CF56B857C85A0
:102600008D859E8520E030E040E251E40E941F026B
:10261000DC01CB01BC01CD010E944900DC01CB01F2
:102620009E838D830FC088EC90E09C838B838B818D
:102630009C810197F1F79C838B838D819E8101970B
:102640009E838D838D819E81009769F714C06F8171
:10265000788589859A850E944900DC01CB019E839B
:102660008D838D819E819A83898389819A81019747
:10267000F1F79A83898389AD9AAD01969AAF89AFB4
:102680008BAD282F30E089AD9AAD821793070CF4FB
:10269000CECDCF5BDF4F0FB6F894DEBF0FBECDBF00
:1026A000CF91DF910F91EF900895DF93CF93CDB746
:1026B000DEB70E94E70DCF91DF910895DF93CF93AE
:1026C00000D000D000D0CDB7DEB70E94300E9E8380
:1026D0008D838D819E81CC01A0E0B0E0BC01CD0155
:1026E0000E94A904DC01CB01BC01CD0120E030E453
:1026F0004CE955E40E941F02DC01CB01BC01CD0175
:1027000020E030E040E854E40E941903DC01CB01F2
:10271000BC01CD010E944900DC01CB019C838B836D
:102720008B819C812AE030E0B9010E94101CCB0112
:102730009A83898389819A8126960FB6F894DEBFA1
:102740000FBECDBFCF91DF910895DF93CF9300D01F
:102750000F92CDB7DEB789836A834B8389816A8103
:1027600041E00E94140A89816B8141E00E94140AB1
:102770000F900F900F90CF91DF910895DF93CF933B
:1027800000D00F92CDB7DEB789836A834B838981EE
:102790006A8141E00E941C0B89816B8140E00E94AC
:1027A0001C0B0F900F900F90CF91DF910895DF9346
:1027B000CF9300D00F92CDB7DEB789836A834B8366
:1027C00089816B8141E00E941C0B89816A8140E014
:1027D0000E941C0B0F900F900F90CF91DF910895E6
:1027E000DF93CF9300D000D00F92CDB7DEB76A83CE
:1027F0007B838C839D8319828A819B81AC81BD817F
:102800002AE030E040E050E0BC01CD010E94241CF1
:10281000DA01C9018A839B83AC83BD8389818F5F81
:1028200089838A819B81AC81BD810097A105B10517
:1028300019F789810F900F900F900F900F90CF9103
:10284000DF9108950F931F93DF93CF93CDB7DEB73A
:1028500028970FB6F894DEBF0FBECDBF6D837E8381
:102860008F8398878D819E81AF81B885BC01CD0112
:102870000E94F013882F90E09C838B831A82198228
:1028800035C02B813C8189819A81A901481B590B54
:10289000CA018C01015010408D819E81AF81B885A5
:1028A0002AE030E040E050E0BC01CD010E94241C51
:1028B000DC01CB01805DF801EC57FE4F80838D81F8
:1028C0009E81AF81B8852AE030E040E050E0BC0155
:1028D000CD010E94241CDA01C9018D839E83AF8340
:1028E000B88789819A8101969A8389838D819E8197
:1028F000AF81B8850097A105B10519F689819A8144
:10290000FC01EC57FE4F108228960FB6F894DEBFFC
:102910000FBECDBFCF91DF911F910F9108950F93FF
:102920001F93DF93CF93CDB7DEB7C654D0400FB619
:10293000F894DEBF0FBECDBF80E06FEF0E9492091A
:1029400083E065E041E00E94140A83E066E041E034
:102950000E94140A83E067E041E00E94140AFE012D
:10296000ED5BFF4F80E090E0A0EFB1E480839183C6
:10297000A283B3838E01015C1F4FFE01ED5BFF4F0D
:10298000608171818281938120E030E04AEF54E4DC
:102990000E941F02DC01CB01F80180839183A28396
:1029A000B383FE01FF96608171818281938120E073
:1029B00030E040E85FE30E94250488232CF481E0A6
:1029C00090E09EAF8DAF46C0FE01FF9660817181A1
:1029D0008281938120E03FEF4FE757E40E94C503D7
:1029E000181664F5FE01ED5BFF4F608171818281F5
:1029F000938120E030E040E251E40E941F02DC01BC
:102A0000CB01BC01CD010E944900DC01CB019EAF8E
:102A10008DAF0FC088EC90E09CAF8BAF8BAD9CADC1
:102A20000197F1F79CAF8BAF8DAD9EAD01979EAF37
:102A30008DAF8DAD9EAD009769F716C0FE01FF9674
:102A400060817181828193810E944900DC01CB0108
:102A50009EAF8DAF8DAD9EAD9AAF89AF89AD9AAD6A
:102A60000197F1F79AAF89AF8CE30E94141780E0C9
:102A700090E0A0E8BFE38DAB9EABAFABB8AF6DA964
:102A80007EA98FA998AD20E030E04AEF54E40E947F
:102A90001F02DC01CB0189AB9AABABABBCAB69A924
:102AA0007AA98BA99CA920E030E040E85FE30E946E
:102AB000250488232CF481E090E098AB8FA73FC0D9
:102AC00069A97AA98BA99CA920E03FEF4FE757E4B9
:102AD0000E94C50318164CF56DA97EA98FA998AD63
:102AE00020E030E040E251E40E941F02DC01CB0113
:102AF000BC01CD010E944900DC01CB0198AB8FA73E
:102B00000FC088EC90E09EA78DA78DA59EA501978C
:102B1000F1F79EA78DA78FA598A9019798AB8FA7CE
:102B20008FA598A9009769F714C069A97AA98BA9FC
:102B30009CA90E944900DC01CB0198AB8FA78FA50F
:102B400098A99CA78BA78BA59CA50197F1F79CA79B
:102B50008BA78FE00E94141780E090E0A0E8BFE30D
:102B60008FA398A7A9A7BAA76FA178A589A59AA5A9
:102B700020E030E04AEF54E40E941F02DC01CB0168
:102B80008BA39CA3ADA3BEA36BA17CA18DA19EA191
:102B900020E030E040E85FE30E94250488232CF425
:102BA00081E090E09AA389A33FC06BA17CA18DA195
:102BB0009EA120E03FEF4FE757E40E94C50318169F
:102BC0004CF56FA178A589A59AA520E030E040E2F8
:102BD00051E40E941F02DC01CB01BC01CD010E9427
:102BE0004900DC01CB019AA389A30FC088EC90E0D7
:102BF00098A38F8F8F8D98A10197F1F798A38F8F4E
:102C000089A19AA101979AA389A389A19AA1009762
:102C100069F714C06BA17CA18DA19EA10E944900FF
:102C2000DC01CB019AA389A389A19AA19E8F8D8FE4
:102C30008D8D9E8D0197F1F79E8F8D8F81E00E9483
:102C4000141780E090E0A0E0B0E4898F9A8FAB8FFA
:102C5000BC8F698D7A8D8B8D9C8D20E030E04AEFA2
:102C600054E40E941F02DC01CB018D8B9E8BAF8B45
:102C7000B88F6D897E898F89988D20E030E040E89B
:102C80005FE30E94250488232CF481E090E09C8B74
:102C90008B8B3FC06D897E898F89988D20E03FEFB7
:102CA0004FE757E40E94C50318164CF5698D7A8DDD
:102CB0008B8D9C8D20E030E040E251E40E941F02A9
:102CC000DC01CB01BC01CD010E944900DC01CB013C
:102CD0009C8B8B8B0FC088EC90E09A8B898B8989B9
:102CE0009A890197F1F79A8B898B8B899C89019737
:102CF0009C8B8B8B8B899C89009769F714C06D899D
:102D00007E898F89988D0E944900DC01CB019C8BC4
:102D10008B8B8B899C89988B8F878F85988901975E
:102D2000F1F7988B8F8783E00E94141780E090E082
:102D3000A0E0B0E48B879C87AD87BE876B857C85E0
:102D40008D859E8520E030E04AEF54E40E941F020A
:102D5000DC01CB018F839887A987BA876F8178853B
:102D600089859A8520E030E040E85FE30E942504F1
:102D700088232CF481E090E09E838D833FC06F8197
:102D8000788589859A8520E03FEF4FE757E40E94D8
:102D9000C50318164CF56B857C858D859E8520E0D6
:102DA00030E040E251E40E941F02DC01CB01BC0193
:102DB000CD010E944900DC01CB019E838D830FC0B1
:102DC00088EC90E09C838B838B819C810197F1F749
:102DD0009C838B838D819E8101979E838D838D81C2
:102DE0009E81009769F714C06F81788589859A85DF
:102DF0000E944900DC01CB019E838D838D819E81E1
:102E00009A83898389819A810197F1F79A838983CB
:102E1000CA5BDF4F0FB6F894DEBF0FBECDBFCF91B8
:102E2000DF911F910F910895DF93CF93CDB7DEB758
:102E30006D970FB6F894DEBF0FBECDBF8D8F83E0C8
:102E400065E040E00E941C0B83E066E040E00E94E9
:102E50001C0B80E06D8D0E94D30983E067E041E0A8
:102E60000E941C0B80E090E0A0E8BFE3898F9A8F5E
:102E7000AB8FBC8F698D7A8D8B8D9C8D20E030E07F
:102E80004AEF54E40E941F02DC01CB018D8B9E8B24
:102E9000AF8BB88F6D897E898F89988D20E030E067
:102EA00040E85FE30E94250488232CF481E090E051
:102EB0009C8B8B8B3FC06D897E898F89988D20E09C
:102EC0003FEF4FE757E40E94C50318164CF5698D94
:102ED0007A8D8B8D9C8D20E030E040E251E40E94A1
:102EE0001F02DC01CB01BC01CD010E944900DC01C5
:102EF000CB019C8B8B8B0FC088EC90E09A8B898BDD
:102F000089899A890197F1F79A8B898B8B899C899A
:102F100001979C8B8B8B8B899C89009769F714C0D8
:102F20006D897E898F89988D0E944900DC01CB01D3
:102F30009C8B8B8B8B899C89988B8F878F859889AD
:102F40000197F1F7988B8F8783E067E040E00E945C
:102F50001C0B80E090E0A0E8BFE38B879C87AD87E7
:102F6000BE876B857C858D859E8520E030E04AEFAD
:102F700054E40E941F02DC01CB018F839887A9874C
:102F8000BA876F81788589859A8520E030E040E8AE
:102F90005FE30E94250488232CF481E090E09E8367
:102FA0008D833FC06F81788589859A8520E03FEFCA
:102FB0004FE757E40E94C50318164CF56B857C85D6
:102FC0008D859E8520E030E040E251E40E941F02A2
:102FD000DC01CB01BC01CD010E944900DC01CB0129
:102FE0009E838D830FC088EC90E09C838B838B81C4
:102FF0009C810197F1F79C838B838D819E81019742
:103000009E838D838D819E81009769F714C06F81A7
:10301000788589859A850E944900DC01CB019E83D1
:103020008D838D819E819A83898389819A8101977D
:10303000F1F79A8389836D960FB6F894DEBF0FBEC1
:10304000CDBFCF91DF910895DF93CF93CDB7DEB79A
:103050002F970FB6F894DEBF0FBECDBF8F8783E0EA
:1030600065E041E00E941C0B83E066E040E00E94C6
:103070001C0B80E06F850E94D30983E067E041E08C
:103080000E941C0B80E090E0A0E8BFE38B879C8748
:10309000AD87BE876B857C858D859E8520E030E081
:1030A0004AEF54E40E941F02DC01CB018F83988712
:1030B000A987BA876F81788589859A8520E030E075
:1030C00040E85FE30E94250488232CF481E090E02F
:1030D0009E838D833FC06F81788589859A8520E0A6
:1030E0003FEF4FE757E40E94C50318164CF56B8578
:1030F0007C858D859E8520E030E040E251E40E9491
:103100001F02DC01CB01BC01CD010E944900DC01A2
:10311000CB019E838D830FC088EC90E09C838B83D2
:103120008B819C810197F1F79C838B838D819E819C
:1031300001979E838D838D819E81009769F714C0CE
:103140006F81788589859A850E944900DC01CB01D1
:103150009E838D838D819E819A83898389819A81C3
:103160000197F1F79A83898383E067E040E00E944A
:103170001C0B2F960FB6F894DEBF0FBECDBFCF91BC
:10318000DF910895DF93CF9300D0CDB7DEB79A8358
:1031900089830AC0E981FA8180810E94241889818B
:1031A0009A8101969A838983E981FA8180818823B3
:1031B00089F70F900F90CF91DF910895DF93CF9310
:1031C00000D000D0CDB7DEB769837A838B839C8330
:1031D00089819A81AB81BC81BC01CD010E942214FE
:1031E00084E891E00E94C2180F900F900F900F900A
:1031F000CF91DF910895DF93CF93CDB7DEB781E014
:103200000E941417CF91DF910895DF93CF93CDB72C
:10321000DEB782E064E041E00E94140A82E065E0EB
:1032200041E00E94140A82E066E041E00E94140A34
:1032300082E067E041E00E94140A82E064E041E03D
:103240000E941C0B82E065E041E00E941C0B82E0C2
:1032500066E041E00E941C0B82E067E041E00E94D2
:103260001C0B82E060E040E00E94140A82E061E012
:1032700040E00E94140A82E062E040E00E94140AEA
:1032800082E063E040E00E94140A82E060E00E9475
:103290006A0D82E061E00E946A0D82E062E00E94B5
:1032A0006A0D82E063E00E946A0DCF91DF9108957C
:1032B000DF93CF93CDB7DEB764970FB6F894DEBF38
:1032C0000FBECDBF1C8A84E090E09B8B8A8BB8C078
:1032D0009A8982E0692F40E00E941C0B198A188AA3
:1032E0009EC0988982E0692F0E94A10C8F878F85EC
:1032F000882309F08FC0488959898A899B899C0154
:1033000024503040CA01880F991F880F991F820FDF
:10331000931FFC01E859FE4F80818C8B06C0988971
:1033200082E0692F0E94A10C8F878F858823B9F3D3
:1033300080E090E0A0E2B1E48B879C87AD87BE87F8
:103340006B857C858D859E8520E030E04AEF54E4D6
:103350000E941F02DC01CB018F839887A987BA875F
:103360006F81788589859A8520E030E040E85FE3C9
:103370000E94250488232CF481E090E09E838D83B5
:103380003FC06F81788589859A8520E03FEF4FE7C0
:1033900057E40E94C50318164CF56B857C858D8516
:1033A0009E8520E030E040E251E40E941F02DC01F3
:1033B000CB01BC01CD010E944900DC01CB019E8301
:1033C0008D830FC088EC90E09C838B838B819C81E4
:1033D0000197F1F79C838B838D819E8101979E835A
:1033E0008D838D819E81009769F714C06F817885E8
:1033F00089859A850E944900DC01CB019E838D83DB
:103400008D819E819A83898389819A810197F1F7C1
:103410009A838983888999890196998B888B888971
:103420009989843091050CF45CCF9A8982E0692FE8
:1034300041E00E941C0B8A899B8901969B8B8A8B99
:103440008A899B89883091050CF442CF8C896496D7
:103450000FB6F894DEBF0FBECDBFCF91DF910895B8
:10346000DF93CF93CDB7DEB768970FB6F894DEBF82
:103470000FBECDBF82E060E041E00E94140A82E00E
:1034800061E041E00E94140A82E062E041E00E94B3
:10349000140A82E066E041E00E94140A82E060E0E3
:1034A00041E00E941C0B82E061E041E00E941C0BA5
:1034B00082E062E041E00E941C0B82E066E041E0B5
:1034C0000E941C0B80E090E0A6E9B3E48D8B9E8BFC
:1034D000AF8BB88F6D897E898F89988D2BEA3AEAF8
:1034E0004AE250E40E941F02DC01CB01898B9A8BD7
:1034F000AB8BBC8B69897A898B899C8920E030E011
:1035000040E85FE30E94250488231CF481E0888B57
:1035100091C069897A898B899C8920E030E04FE7E6
:1035200053E40E94C50318160CF07BC06D897E8998
:103530008F89988D20E030E04AE754E40E94190317
:10354000DC01CB018C879D87AE87BF876C857D852D
:103550008E859F8520E030E04AEF54E40E941F02F0
:10356000DC01CB0188879987AA87BB876885798525
:103570008A859B8520E030E040E85FE30E942504D7
:1035800088232CF481E090E09F838E833FC0688580
:1035900079858A859B8520E03FEF4FE757E40E94BD
:1035A000C50318164CF56C857D858E859F8520E0BA
:1035B00030E040E251E40E941F02DC01CB01BC017B
:1035C000CD010E944900DC01CB019F838E830FC097
:1035D00088EC90E09D838C838C819D810197F1F72D
:1035E0009D838C838E819F8101979F838E838E81A3
:1035F0009F81009769F724C0688579858A859B85B6
:103600000E944900DC01CB019F838E838E819F81C4
:103610009B838A838A819B810197F1F79B838A83AD
:103620000FC069897A898B899C890E944900DC01D5
:10363000CB01888B8889898389818A95F1F7898371
:1036400082E066E040E00E941C0BFFCF1F920F92C9
:103650000FB60F9211242F933F934F935F936F9365
:103660007F938F939F93AF93BF93EF93FF93DF93DA
:10367000CF93CDB7DEB780E060E00E94240CCF91FD
:10368000DF91FF91EF91BF91AF919F918F917F91CA
:103690006F915F914F913F912F910F900FBE0F90BF
:1036A0001F9018951F920F920FB60F9211242F930F
:1036B0003F934F935F936F937F938F939F93AF93BA
:1036C000BF93EF93FF93DF93CF93CDB7DEB7809196
:1036D000800190918101A0918201B09183010196B6
:1036E000A11DB11D8093800190938101A09382015F
:1036F000B09383012091800130918101409182013A
:10370000509183018091780190917901A0917A0183
:10371000B0917B01281739074A075B07B9F480E0AD
:1037200060E00E94240C109280011092810110929E
:10373000820110928301E2E5F0E080917C0190919A
:103740007D01A0917E01B0917F018083CF91DF91B7
:10375000FF91EF91BF91AF919F918F917F916F9169
:103760005F914F913F912F910F900FBE0F901F903F
:1037700018951F920F920FB60F9211242F933F931B
:103780004F935F936F937F938F939F93AF93BF9369
:10379000EF93FF93DF93CF93CDB7DEB781E062E085
:1037A0000E94240CCF91DF91FF91EF91BF91AF91D7
:1037B0009F918F917F916F915F914F913F912F9149
:1037C0000F900FBE0F901F901895629FD001739FAE
:1037D000F001829FE00DF11D649FE00DF11D929FAD
:1037E000F00D839FF00D749FF00D659FF00D9927EC
:1037F000729FB00DE11DF91F639FB00DE11DF91F10
:10380000BD01CF0111240895991B79E004C0991FCF
:10381000961708F0961B881F7A95C9F7809508952A
:10382000AA1BBB1B51E107C0AA1FBB1FA617B707E6
:1038300010F0A61BB70B881F991F5A95A9F7809502
:103840009095BC01CD010895A1E21A2EAA1BBB1BC5
:10385000FD010DC0AA1FBB1FEE1FFF1FA217B3075C
:10386000E407F50720F0A21BB30BE40BF50B661F72
:10387000771F881F991F1A9469F760957095809536
:1038800090959B01AC01BD01CF0108952F923F920D
:103890004F925F926F927F928F929F92AF92BF9260
:1038A000CF92DF92EF92FF920F931F93CF93DF930C
:1038B000CDB7DEB7CA1BDB0B0FB6F894DEBF0FBE69
:1038C000CDBF09942A88398848885F846E847D84B6
:1038D0008C849B84AA84B984C884DF80EE80FD80B8
:1038E0000C811B81AA81B981CE0FD11D0FB6F8942E
:0E38F000DEBF0FBECDBFED010895F894FFCFEF
:1038FE0000000000000000000001020203030303A9
:10390E000404040404040404050505050505050561
:10391E000505050505050505060606060606060641
:10392E000606060606060606060606060606060629
:10393E000606060606060606070707070707070711
:10394E0007070707070707070707070707070707F9
:10395E0007070707070707070707070707070707E9
:10396E0007070707070707070707070707070707D9
:10397E0007070707070707070808080808080808C1
:10398E0008080808080808080808080808080808A9
:10399E000808080808080808080808080808080899
:1039AE000808080808080808080808080808080889
:1039BE000808080808080808080808080808080879
:1039CE000808080808080808080808080808080869
:1039DE000808080808080808080808080808080859
:1039EE000808080808080808080808080808080849
:1039FE0008080808080808083738392F3435362AD9
:083A0E003132332D6E303D2BE7
:00000001FF
